{
  "contractName": "CricketOracle",
  "abi": [
    {
      "anonymous": false,
      "inputs": [
        {
          "indexed": true,
          "internalType": "address",
          "name": "previousOwner",
          "type": "address"
        },
        {
          "indexed": true,
          "internalType": "address",
          "name": "newOwner",
          "type": "address"
        }
      ],
      "name": "OwnershipTransferred",
      "type": "event"
    },
    {
      "inputs": [],
      "name": "owner",
      "outputs": [
        {
          "internalType": "address",
          "name": "",
          "type": "address"
        }
      ],
      "stateMutability": "view",
      "type": "function"
    },
    {
      "inputs": [
        {
          "internalType": "address",
          "name": "newOwner",
          "type": "address"
        }
      ],
      "name": "transferOwnership",
      "outputs": [],
      "stateMutability": "nonpayable",
      "type": "function"
    },
    {
      "inputs": [
        {
          "internalType": "bytes32",
          "name": "_matchId",
          "type": "bytes32"
        }
      ],
      "name": "matchExists",
      "outputs": [
        {
          "internalType": "bool",
          "name": "",
          "type": "bool"
        }
      ],
      "stateMutability": "view",
      "type": "function"
    },
    {
      "inputs": [
        {
          "internalType": "string",
          "name": "_name",
          "type": "string"
        },
        {
          "internalType": "string",
          "name": "_participants",
          "type": "string"
        },
        {
          "internalType": "uint8",
          "name": "_participantCount",
          "type": "uint8"
        },
        {
          "internalType": "uint256",
          "name": "_date",
          "type": "uint256"
        }
      ],
      "name": "addMatch",
      "outputs": [
        {
          "internalType": "bytes32",
          "name": "",
          "type": "bytes32"
        }
      ],
      "stateMutability": "nonpayable",
      "type": "function"
    },
    {
      "inputs": [
        {
          "internalType": "bytes32",
          "name": "_matchId",
          "type": "bytes32"
        },
        {
          "internalType": "enum CricketOracle.MatchOutcome",
          "name": "_outcome",
          "type": "uint8"
        },
        {
          "internalType": "int8",
          "name": "_winner",
          "type": "int8"
        }
      ],
      "name": "declareOutcome",
      "outputs": [],
      "stateMutability": "nonpayable",
      "type": "function"
    },
    {
      "inputs": [],
      "name": "getPendingMatches",
      "outputs": [
        {
          "internalType": "bytes32[]",
          "name": "",
          "type": "bytes32[]"
        }
      ],
      "stateMutability": "view",
      "type": "function"
    },
    {
      "inputs": [],
      "name": "getAllMatches",
      "outputs": [
        {
          "internalType": "bytes32[]",
          "name": "",
          "type": "bytes32[]"
        }
      ],
      "stateMutability": "view",
      "type": "function"
    },
    {
      "inputs": [
        {
          "internalType": "bytes32",
          "name": "_matchId",
          "type": "bytes32"
        }
      ],
      "name": "getMatch",
      "outputs": [
        {
          "internalType": "bytes32",
          "name": "id",
          "type": "bytes32"
        },
        {
          "internalType": "string",
          "name": "name",
          "type": "string"
        },
        {
          "internalType": "string",
          "name": "participants",
          "type": "string"
        },
        {
          "internalType": "uint8",
          "name": "participantCount",
          "type": "uint8"
        },
        {
          "internalType": "uint256",
          "name": "date",
          "type": "uint256"
        },
        {
          "internalType": "enum CricketOracle.MatchOutcome",
          "name": "outcome",
          "type": "uint8"
        },
        {
          "internalType": "int8",
          "name": "winner",
          "type": "int8"
        }
      ],
      "stateMutability": "view",
      "type": "function"
    },
    {
      "inputs": [
        {
          "internalType": "bool",
          "name": "_pending",
          "type": "bool"
        }
      ],
      "name": "getMostRecentMatch",
      "outputs": [
        {
          "internalType": "bytes32",
          "name": "id",
          "type": "bytes32"
        },
        {
          "internalType": "string",
          "name": "name",
          "type": "string"
        },
        {
          "internalType": "string",
          "name": "participants",
          "type": "string"
        },
        {
          "internalType": "uint8",
          "name": "participantCount",
          "type": "uint8"
        },
        {
          "internalType": "uint256",
          "name": "date",
          "type": "uint256"
        },
        {
          "internalType": "enum CricketOracle.MatchOutcome",
          "name": "outcome",
          "type": "uint8"
        },
        {
          "internalType": "int8",
          "name": "winner",
          "type": "int8"
        }
      ],
      "stateMutability": "view",
      "type": "function"
    },
    {
      "inputs": [],
      "name": "testConnection",
      "outputs": [
        {
          "internalType": "bool",
          "name": "",
          "type": "bool"
        }
      ],
      "stateMutability": "pure",
      "type": "function"
    },
    {
      "inputs": [],
      "name": "getAddress",
      "outputs": [
        {
          "internalType": "address",
          "name": "",
          "type": "address"
        }
      ],
      "stateMutability": "view",
      "type": "function"
    },
    {
      "inputs": [],
      "name": "addTestData",
      "outputs": [],
      "stateMutability": "nonpayable",
      "type": "function"
    }
  ],
  "bytecode": "0x608060405234801561001057600080fd5b50336000806101000a81548173ffffffffffffffffffffffffffffffffffffffff021916908373ffffffffffffffffffffffffffffffffffffffff160217905550612751806100606000396000f3fe608060405234801561001057600080fd5b50600436106100b45760003560e01c8063a212b45411610071578063a212b4541461017d578063a934524014610187578063bb2b0f58146101b7578063c17c5a45146101ed578063f2fde38b1461020b578063fcc6077d14610227576100b4565b80633412a15c146100b957806338cc4831146100d75780635f29d4b1146100f55780637898d334146101135780638da5cb5b1461012f578063a1d2d3141461014d575b600080fd5b6100c161025d565b6040516100ce91906119a6565b60405180910390f35b6100df610266565b6040516100ec9190611a02565b60405180910390f35b6100fd61026e565b60405161010a9190611ae5565b60405180910390f35b61012d60048036038101906101289190611ba5565b610451565b005b6101376105cc565b6040516101449190611a02565b60405180910390f35b61016760048036038101906101629190611dad565b6105f0565b6040516101749190611e5b565b60405180910390f35b610185610821565b005b6101a1600480360381019061019c9190611e76565b61102e565b6040516101ae91906119a6565b60405180910390f35b6101d160048036038101906101cc9190611ecf565b61106a565b6040516101e4979695949392919061201f565b60405180910390f35b6101f56110ec565b6040516102029190611ae5565b60405180910390f35b610225600480360381019061022091906120c8565b6111dc565b005b610241600480360381019061023c9190611e76565b61132a565b604051610254979695949392919061201f565b60405180910390f35b60006001905090565b600033905090565b60606000805b600180549050811015610301576000600381111561029557610294611f99565b5b600182815481106102a9576102a86120f5565b5b906000526020600020906006020160050160009054906101000a900460ff1660038111156102da576102d9611f99565b5b036102ee5781806102ea90612153565b9250505b80806102f990612153565b915050610274565b5060008167ffffffffffffffff81111561031e5761031d611c13565b5b60405190808252806020026020018201604052801561034c5781602001602082028036833780820191505090505b50905060008211156104495760008060018054905090505b6000811115610446576000600381111561038157610380611f99565b5b6001808361038f919061219b565b815481106103a05761039f6120f5565b5b906000526020600020906006020160050160009054906101000a900460ff1660038111156103d1576103d0611f99565b5b0361043357600180826103e4919061219b565b815481106103f5576103f46120f5565b5b90600052602060002090600602016000015483838061041390612153565b945081518110610426576104256120f5565b5b6020026020010181815250505b808061043e906121cf565b915050610364565b50505b809250505090565b60008054906101000a900473ffffffffffffffffffffffffffffffffffffffff1673ffffffffffffffffffffffffffffffffffffffff163373ffffffffffffffffffffffffffffffffffffffff16146104a957600080fd5b6104b28361102e565b6104bb57600080fd5b60006104c68461154e565b90506000600182815481106104de576104dd6120f5565b5b9060005260206000209060060201905060038081111561050157610500611f99565b5b84600381111561051457610513611f99565b5b0361054d5760008360000b1215801561054357508260ff168160030160009054906101000a900460ff1660ff16115b61054c57600080fd5b5b838160050160006101000a81548160ff0219169083600381111561057457610573611f99565b5b021790555060038081111561058c5761058b611f99565b5b84600381111561059f5761059e611f99565b5b036105c557828160050160016101000a81548160ff021916908360000b60ff1602179055505b5050505050565b60008054906101000a900473ffffffffffffffffffffffffffffffffffffffff1681565b60008060009054906101000a900473ffffffffffffffffffffffffffffffffffffffff1673ffffffffffffffffffffffffffffffffffffffff163373ffffffffffffffffffffffffffffffffffffffff161461064b57600080fd5b60008584846040516020016106629392919061228b565b6040516020818303038152906040528051906020012090506106838161102e565b1561068d57600080fd5b60016040518060e001604052808381526020018881526020018781526020018660ff168152602001858152602001600060038111156106cf576106ce611f99565b5b81526020017fffffffffffffffffffffffffffffffffffffffffffffffffffffffffffffffff60000b815250908060018154018082558091505060019003906000526020600020906006020160009091909190915060008201518160000155602082015181600101908161074391906124d0565b50604082015181600201908161075991906124d0565b5060608201518160030160006101000a81548160ff021916908360ff1602179055506080820151816004015560a08201518160050160006101000a81548160ff021916908360038111156107b0576107af611f99565b5b021790555060c08201518160050160016101000a81548160ff021916908360000b60ff16021790555050506000600180805490506107ee919061219b565b90506001816107fd91906125a2565b60026000848152602001908152602001600020819055508192505050949350505050565b60008054906101000a900473ffffffffffffffffffffffffffffffffffffffff1673ffffffffffffffffffffffffffffffffffffffff163373ffffffffffffffffffffffffffffffffffffffff161461087957600080fd5b6109536040518060400160405280600a81526020017f4d492076732e2043534b000000000000000000000000000000000000000000008152506040518060400160405280600a81526020017f4d492076732e2043534b00000000000000000000000000000000000000000000815250600261094e6040518061010001604052806107e661ffff168152602001600860ff168152602001600d60ff168152602001600060ff168152602001600060ff168152602001600060ff168152602001600060ff168152602001600060ff16815250611577565b6105f0565b50610a2e6040518060400160405280600b81526020017f5243422076732e2043534b0000000000000000000000000000000000000000008152506040518060400160405280600b81526020017f5243422076732e2043534b0000000000000000000000000000000000000000008152506002610a296040518061010001604052806107e661ffff168152602001600860ff168152602001600f60ff168152602001600060ff168152602001600060ff168152602001600060ff168152602001600060ff168152602001600060ff16815250611577565b6105f0565b50610b096040518060400160405280600a81526020017f52522076732e204b4b52000000000000000000000000000000000000000000008152506040518060400160405280600a81526020017f52522076732e204b4b52000000000000000000000000000000000000000000008152506002610b046040518061010001604052806107e661ffff168152602001600960ff168152602001600360ff168152602001600060ff168152602001600060ff168152602001600060ff168152602001600060ff168152602001600060ff16815250611577565b6105f0565b50610be46040518060400160405280600a81526020017f4c53472076732e204754000000000000000000000000000000000000000000008152506040518060400160405280600a81526020017f4c53472076732e204754000000000000000000000000000000000000000000008152506002610bdf6040518061010001604052806107e661ffff168152602001600960ff168152602001600360ff168152602001600060ff168152602001600060ff168152602001600060ff168152602001600060ff168152602001600060ff16815250611577565b6105f0565b50610cbf6040518060400160405280600981526020017f47542076732e204d4900000000000000000000000000000000000000000000008152506040518060400160405280600981526020017f47542076732e204d4900000000000000000000000000000000000000000000008152506002610cba6040518061010001604052806107e661ffff168152602001600960ff168152602001601560ff168152602001600060ff168152602001600060ff168152602001600060ff168152602001600060ff168152602001600060ff16815250611577565b6105f0565b50610d9a6040518060400160405280600a81526020017f44442076732e204c5347000000000000000000000000000000000000000000008152506040518060400160405280600a81526020017f44442076732e204c5347000000000000000000000000000000000000000000008152506002610d956040518061010001604052806107e661ffff168152602001600960ff168152602001601d60ff168152602001600060ff168152602001600060ff168152602001600060ff168152602001600060ff168152602001600060ff16815250611577565b6105f0565b50610e756040518060400160405280600a81526020017f4d492076732e204c5347000000000000000000000000000000000000000000008152506040518060400160405280600a81526020017f4d492076732e204c5347000000000000000000000000000000000000000000008152506002610e706040518061010001604052806107e661ffff168152602001600a60ff168152602001600a60ff168152602001600060ff168152602001600060ff168152602001600060ff168152602001600060ff168152602001600060ff16815250611577565b6105f0565b50610f506040518060400160405280600a81526020017f4b4b522076732e204444000000000000000000000000000000000000000000008152506040518060400160405280600a81526020017f4b4b522076732e204444000000000000000000000000000000000000000000008152506002610f4b6040518061010001604052806107e661ffff168152602001600b60ff168152602001600b60ff168152602001600060ff168152602001600060ff168152602001600060ff168152602001600060ff168152602001600060ff16815250611577565b6105f0565b5061102b6040518060400160405280600a81526020017f50572076732e20524342000000000000000000000000000000000000000000008152506040518060400160405280600a81526020017f50572076732e205243420000000000000000000000000000000000000000000081525060026110266040518061010001604052806107e661ffff168152602001600b60ff168152602001600c60ff168152602001600060ff168152602001600060ff168152602001600060ff168152602001600060ff168152602001600060ff16815250611577565b6105f0565b50565b600080600180549050036110455760009050611065565b600060026000848152602001908152602001600020549050600081119150505b919050565b600060608060008060008060008060001b9050606089156110945761108d61026e565b905061109f565b61109c6110ec565b90505b6000815111156110c857806000815181106110bd576110bc6120f5565b5b602002602001015191505b6110d18261132a565b98509850985098509850985098505050919395979092949650565b6060600060018054905067ffffffffffffffff81111561110f5761110e611c13565b5b60405190808252806020026020018201604052801561113d5781602001602082028036833780820191505090505b509050600060018054905011156111d55760008060018054905090505b60008111156111d25760018082611171919061219b565b81548110611182576111816120f5565b5b9060005260206000209060060201600001548383806111a090612153565b9450815181106111b3576111b26120f5565b5b60200260200101818152505080806111ca906121cf565b91505061115a565b50505b8091505090565b60008054906101000a900473ffffffffffffffffffffffffffffffffffffffff1673ffffffffffffffffffffffffffffffffffffffff163373ffffffffffffffffffffffffffffffffffffffff161461123457600080fd5b600073ffffffffffffffffffffffffffffffffffffffff168173ffffffffffffffffffffffffffffffffffffffff160361126d57600080fd5b8073ffffffffffffffffffffffffffffffffffffffff1660008054906101000a900473ffffffffffffffffffffffffffffffffffffffff1673ffffffffffffffffffffffffffffffffffffffff167f8be0079c531659141344cd1fd0a4f28419497f9722a3daafe3b4186f6b6457e060405160405180910390a3806000806101000a81548173ffffffffffffffffffffffffffffffffffffffff021916908373ffffffffffffffffffffffffffffffffffffffff16021790555050565b600060608060008060008061133e8861102e565b156114e557600060016113508a61154e565b81548110611361576113606120f5565b5b90600052602060002090600602019050806000015481600101826002018360030160009054906101000a900460ff1684600401548560050160009054906101000a900460ff168660050160019054906101000a900460000b8580546113c5906122f3565b80601f01602080910402602001604051908101604052809291908181526020018280546113f1906122f3565b801561143e5780601f106114135761010080835404028352916020019161143e565b820191906000526020600020905b81548152906001019060200180831161142157829003601f168201915b50505050509550848054611451906122f3565b80601f016020809104026020016040519081016040528092919081815260200182805461147d906122f3565b80156114ca5780601f1061149f576101008083540402835291602001916114ca565b820191906000526020600020905b8154815290600101906020018083116114ad57829003601f168201915b50505050509450975097509750975097509750975050611543565b8760008060007fffffffffffffffffffffffffffffffffffffffffffffffffffffffffffffffff6040518060200160405280600081525093929190604051806020016040528060008152509392919096509650965096509650965096505b919395979092949650565b600060016002600084815260200190815260200160002054611570919061219b565b9050919050565b6000806107b290505b826000015161ffff168161ffff1610156115df5761159d816118f9565b156115b9576301e28500826115b291906125a2565b91506115cc565b6301e13380826115c991906125a2565b91505b80806115d7906125e4565b915050611580565b6115e7611968565b601f816000600c81106115fd576115fc6120f5565b5b602002019060ff16908160ff168152505061161b84600001516118f9565b1561164c57601d816001600c8110611636576116356120f5565b5b602002019060ff16908160ff1681525050611674565b601c816001600c8110611662576116616120f5565b5b602002019060ff16908160ff16815250505b601f816002600c811061168a576116896120f5565b5b602002019060ff16908160ff1681525050601e816003600c81106116b1576116b06120f5565b5b602002019060ff16908160ff1681525050601f816004600c81106116d8576116d76120f5565b5b602002019060ff16908160ff1681525050601e816005600c81106116ff576116fe6120f5565b5b602002019060ff16908160ff1681525050601f816006600c8110611726576117256120f5565b5b602002019060ff16908160ff1681525050601f816007600c811061174d5761174c6120f5565b5b602002019060ff16908160ff1681525050601e816008600c8110611774576117736120f5565b5b602002019060ff16908160ff1681525050601f816009600c811061179b5761179a6120f5565b5b602002019060ff16908160ff1681525050601e81600a600c81106117c2576117c16120f5565b5b602002019060ff16908160ff1681525050601f81600b600c81106117e9576117e86120f5565b5b602002019060ff16908160ff1681525050600191505b836020015160ff168261ffff16101561186b5780600183611820919061260e565b61ffff16600c8110611835576118346120f5565b5b602002015160ff166201518061184b9190612644565b8361185691906125a2565b92508180611863906125e4565b9250506117ff565b6001846040015161187c9190612686565b60ff166201518061188d9190612644565b8361189891906125a2565b9250836060015160ff16610e106118af9190612644565b836118ba91906125a2565b9250836080015160ff16603c6118d09190612644565b836118db91906125a2565b92508360a0015160ff16836118f091906125a2565b92505050919050565b60008060048361190991906126ea565b61ffff161461191b5760009050611963565b600060648361192a91906126ea565b61ffff161461193c5760019050611963565b60006101908361194c91906126ea565b61ffff161461195e5760009050611963565b600190505b919050565b604051806101800160405280600c90602082028036833780820191505090505090565b60008115159050919050565b6119a08161198b565b82525050565b60006020820190506119bb6000830184611997565b92915050565b600073ffffffffffffffffffffffffffffffffffffffff82169050919050565b60006119ec826119c1565b9050919050565b6119fc816119e1565b82525050565b6000602082019050611a1760008301846119f3565b92915050565b600081519050919050565b600082825260208201905092915050565b6000819050602082019050919050565b6000819050919050565b611a5c81611a49565b82525050565b6000611a6e8383611a53565b60208301905092915050565b6000602082019050919050565b6000611a9282611a1d565b611a9c8185611a28565b9350611aa783611a39565b8060005b83811015611ad8578151611abf8882611a62565b9750611aca83611a7a565b925050600181019050611aab565b5085935050505092915050565b60006020820190508181036000830152611aff8184611a87565b905092915050565b6000604051905090565b600080fd5b600080fd5b611b2481611a49565b8114611b2f57600080fd5b50565b600081359050611b4181611b1b565b92915050565b60048110611b5457600080fd5b50565b600081359050611b6681611b47565b92915050565b60008160000b9050919050565b611b8281611b6c565b8114611b8d57600080fd5b50565b600081359050611b9f81611b79565b92915050565b600080600060608486031215611bbe57611bbd611b11565b5b6000611bcc86828701611b32565b9350506020611bdd86828701611b57565b9250506040611bee86828701611b90565b9150509250925092565b600080fd5b600080fd5b6000601f19601f8301169050919050565b7f4e487b7100000000000000000000000000000000000000000000000000000000600052604160045260246000fd5b611c4b82611c02565b810181811067ffffffffffffffff82111715611c6a57611c69611c13565b5b80604052505050565b6000611c7d611b07565b9050611c898282611c42565b919050565b600067ffffffffffffffff821115611ca957611ca8611c13565b5b611cb282611c02565b9050602081019050919050565b82818337600083830152505050565b6000611ce1611cdc84611c8e565b611c73565b905082815260208101848484011115611cfd57611cfc611bfd565b5b611d08848285611cbf565b509392505050565b600082601f830112611d2557611d24611bf8565b5b8135611d35848260208601611cce565b91505092915050565b600060ff82169050919050565b611d5481611d3e565b8114611d5f57600080fd5b50565b600081359050611d7181611d4b565b92915050565b6000819050919050565b611d8a81611d77565b8114611d9557600080fd5b50565b600081359050611da781611d81565b92915050565b60008060008060808587031215611dc757611dc6611b11565b5b600085013567ffffffffffffffff811115611de557611de4611b16565b5b611df187828801611d10565b945050602085013567ffffffffffffffff811115611e1257611e11611b16565b5b611e1e87828801611d10565b9350506040611e2f87828801611d62565b9250506060611e4087828801611d98565b91505092959194509250565b611e5581611a49565b82525050565b6000602082019050611e706000830184611e4c565b92915050565b600060208284031215611e8c57611e8b611b11565b5b6000611e9a84828501611b32565b91505092915050565b611eac8161198b565b8114611eb757600080fd5b50565b600081359050611ec981611ea3565b92915050565b600060208284031215611ee557611ee4611b11565b5b6000611ef384828501611eba565b91505092915050565b600081519050919050565b600082825260208201905092915050565b60005b83811015611f36578082015181840152602081019050611f1b565b60008484015250505050565b6000611f4d82611efc565b611f578185611f07565b9350611f67818560208601611f18565b611f7081611c02565b840191505092915050565b611f8481611d3e565b82525050565b611f9381611d77565b82525050565b7f4e487b7100000000000000000000000000000000000000000000000000000000600052602160045260246000fd5b60048110611fd957611fd8611f99565b5b50565b6000819050611fea82611fc8565b919050565b6000611ffa82611fdc565b9050919050565b61200a81611fef565b82525050565b61201981611b6c565b82525050565b600060e082019050612034600083018a611e4c565b81810360208301526120468189611f42565b9050818103604083015261205a8188611f42565b90506120696060830187611f7b565b6120766080830186611f8a565b61208360a0830185612001565b61209060c0830184612010565b98975050505050505050565b6120a5816119e1565b81146120b057600080fd5b50565b6000813590506120c28161209c565b92915050565b6000602082840312156120de576120dd611b11565b5b60006120ec848285016120b3565b91505092915050565b7f4e487b7100000000000000000000000000000000000000000000000000000000600052603260045260246000fd5b7f4e487b7100000000000000000000000000000000000000000000000000000000600052601160045260246000fd5b600061215e82611d77565b91507fffffffffffffffffffffffffffffffffffffffffffffffffffffffffffffffff82036121905761218f612124565b5b600182019050919050565b60006121a682611d77565b91506121b183611d77565b92508282039050818111156121c9576121c8612124565b5b92915050565b60006121da82611d77565b9150600082036121ed576121ec612124565b5b600182039050919050565b600081905092915050565b600061220e82611efc565b61221881856121f8565b9350612228818560208601611f18565b80840191505092915050565b60008160f81b9050919050565b600061224c82612234565b9050919050565b61226461225f82611d3e565b612241565b82525050565b6000819050919050565b61228561228082611d77565b61226a565b82525050565b60006122978286612203565b91506122a38285612253565b6001820191506122b38284612274565b602082019150819050949350505050565b7f4e487b7100000000000000000000000000000000000000000000000000000000600052602260045260246000fd5b6000600282049050600182168061230b57607f821691505b60208210810361231e5761231d6122c4565b5b50919050565b60008190508160005260206000209050919050565b60006020601f8301049050919050565b600082821b905092915050565b6000600883026123867fffffffffffffffffffffffffffffffffffffffffffffffffffffffffffffffff82612349565b6123908683612349565b95508019841693508086168417925050509392505050565b6000819050919050565b60006123cd6123c86123c384611d77565b6123a8565b611d77565b9050919050565b6000819050919050565b6123e7836123b2565b6123fb6123f3826123d4565b848454612356565b825550505050565b600090565b612410612403565b61241b8184846123de565b505050565b5b8181101561243f57612434600082612408565b600181019050612421565b5050565b601f8211156124845761245581612324565b61245e84612339565b8101602085101561246d578190505b61248161247985612339565b830182612420565b50505b505050565b600082821c905092915050565b60006124a760001984600802612489565b1980831691505092915050565b60006124c08383612496565b9150826002028217905092915050565b6124d982611efc565b67ffffffffffffffff8111156124f2576124f1611c13565b5b6124fc82546122f3565b612507828285612443565b600060209050601f83116001811461253a5760008415612528578287015190505b61253285826124b4565b86555061259a565b601f19841661254886612324565b60005b828110156125705784890151825560018201915060208501945060208101905061254b565b8683101561258d5784890151612589601f891682612496565b8355505b6001600288020188555050505b505050505050565b60006125ad82611d77565b91506125b883611d77565b92508282019050808211156125d0576125cf612124565b5b92915050565b600061ffff82169050919050565b60006125ef826125d6565b915061ffff820361260357612602612124565b5b600182019050919050565b6000612619826125d6565b9150612624836125d6565b9250828203905061ffff81111561263e5761263d612124565b5b92915050565b600061264f82611d77565b915061265a83611d77565b925082820261266881611d77565b9150828204841483151761267f5761267e612124565b5b5092915050565b600061269182611d3e565b915061269c83611d3e565b9250828203905060ff8111156126b5576126b4612124565b5b92915050565b7f4e487b7100000000000000000000000000000000000000000000000000000000600052601260045260246000fd5b60006126f5826125d6565b9150612700836125d6565b9250826127105761270f6126bb565b5b82820690509291505056fea2646970667358221220daf2b067d4947a0e8f7b5f364523eeddb9b47bc1775eff0a4a956a721c48dcba64736f6c63430008130033",
  "immutableReferences": {},
  "source": "// SPDX-License-Identifier: MIT\npragma solidity >=0.8.2 <0.9.0;\n\nimport \"./Ownable.sol\";\nimport \"./DateLib.sol\";\n\n/// @title IPL Match result Oracle\n/// @author Vedant Dalvi\n/// @notice Collects and provides information on cricket matches and their outcomes \ncontract CricketOracle is Ownable {\n    Match[] matches; \n    mapping(bytes32 => uint) matchIdToIndex; \n\n    using DateLib for DateLib.DateTime;\n\n\n    //defines a match along with its outcome\n    struct Match {\n        bytes32 id;             //unique id\n        string name;            //human-friendly name (e.g. MI vs. CSK)\n        string participants;    //a delimited string of participant names\n        uint8 participantCount; //number of participants (always 2 for Cricket matches!) \n        uint date;              //GMT timestamp of date of contest\n        MatchOutcome outcome;   //the outcome (if decided)\n        int8 winner;            //index of the participant who is the winner\n    }\n\n    //possible match outcomes \n    enum MatchOutcome {\n        Pending,    //match has not been fought to decision\n        Underway,   //match has started & is underway\n        Draw,       //anything other than a clear winner (e.g. cancelled)\n        Decided     //index of participant who is the winner \n    }\n\n\n    /// @notice returns the array index of the match with the given id \n    /// @dev if the match id is invalid, then the return value will be incorrect and may cause error; you must call matchExists(_matchId) first!\n    /// @param _matchId the match id to get\n    /// @return an array index \n    function _getMatchIndex(bytes32 _matchId) private view returns (uint) {\n        return matchIdToIndex[_matchId]-1; \n    }\n\n\n    /// @notice determines whether a match exists with the given id \n    /// @param _matchId the match id to test\n    /// @return true if match exists and id is valid\n    function matchExists(bytes32 _matchId) public view returns (bool) {\n        if (matches.length == 0)\n            return false;\n        uint index = matchIdToIndex[_matchId]; \n        return (index > 0); \n    }\n\n    /// @notice puts a new pending match into the blockchain \n    /// @param _name descriptive name for the match (e.g. Pac vs. Mayweather 2016)\n    /// @param _participants |-delimited string of participants names (e.g. \"Manny Pac|Floyd May\")\n    /// @param _participantCount number of participants \n    /// @param _date date set for the match \n    /// @return the unique id of the newly created match \n    function addMatch(string memory _name, string memory _participants, uint8 _participantCount, uint _date) onlyOwner public returns (bytes32) {\n\n        //hash the crucial info to get a unique id \n        bytes32 id = keccak256(abi.encodePacked(_name, _participantCount, _date)); \n\n        //require that the match be unique (not already added) \n        require(!matchExists(id));\n        \n        //add the match \n        matches.push(Match(id, _name, _participants, _participantCount, _date, MatchOutcome.Pending, -1)); \n        uint newIndex = matches.length-1;\n        matchIdToIndex[id] = newIndex+1;\n        \n        //return the unique id of the new match\n        return id;\n    }\n\n    /// @notice sets the outcome of a predefined match, permanently on the blockchain\n    /// @param _matchId unique id of the match to modify\n    /// @param _outcome outcome of the match \n    function declareOutcome(bytes32 _matchId, MatchOutcome _outcome, int8 _winner) onlyOwner external {\n\n        //require that it exists\n        require(matchExists(_matchId)); \n\n        //get the match \n        uint index = _getMatchIndex(_matchId);\n        Match storage theMatch = matches[index]; \n\n        if (_outcome == MatchOutcome.Decided) \n            require(_winner >= 0 && theMatch.participantCount > uint8(_winner)); \n\n        //set the outcome \n        theMatch.outcome = _outcome;\n        \n        //set the winner (if there is one)\n        if (_outcome == MatchOutcome.Decided) \n            theMatch.winner = _winner;\n    }\n\n    /// @notice gets the unique ids of all pending matches, in reverse chronological order\n    /// @return an array of unique match ids\n    function getPendingMatches() public view returns (bytes32[] memory) {\n        uint count = 0; \n\n        //get count of pending matches \n        for (uint i = 0; i < matches.length; i++) {\n            if (matches[i].outcome == MatchOutcome.Pending) \n                count++; \n        }\n\n        //collect up all the pending matches\n        bytes32[] memory output = new bytes32[](count); \n\n        if (count > 0) {\n            uint index = 0;\n            for (uint n = matches.length; n > 0; n--) {\n                if (matches[n-1].outcome == MatchOutcome.Pending) \n                    output[index++] = matches[n-1].id;\n            }\n        } \n\n        return output; \n    }\n\n    /// @notice gets the unique ids of matches, pending and decided, in reverse chronological order\n    /// @return an array of unique match ids\n    function getAllMatches() public view returns (bytes32[] memory) {\n        bytes32[] memory output = new bytes32[](matches.length); \n\n        //get all ids \n        if (matches.length > 0) {\n            uint index = 0;\n            for (uint n = matches.length; n > 0; n--) {\n                output[index++] = matches[n-1].id;\n            }\n        }\n        \n        return output; \n    }\n\n    /// @notice gets the specified match \n    /// @param _matchId the unique id of the desired match \n\n    function getMatch(bytes32 _matchId) public view returns (\n        bytes32 id,\n        string memory name, \n        string memory participants,\n        uint8 participantCount,\n        uint date, \n        MatchOutcome outcome, \n        int8 winner) {\n        \n        //get the match \n        if (matchExists(_matchId)) {\n            Match storage theMatch = matches[_getMatchIndex(_matchId)];\n            return (theMatch.id, theMatch.name, theMatch.participants, theMatch.participantCount, theMatch.date, theMatch.outcome, theMatch.winner); \n        }\n        else {\n            return (_matchId, \"\", \"\", 0, 0, MatchOutcome.Pending, -1); \n        }\n    }\n\n    /// @notice gets the most recent match or pending match \n    /// @param _pending if true, will return only the most recent pending match; otherwise, returns the most recent match either pending or completed\n\n    function getMostRecentMatch(bool _pending) public view returns (\n        bytes32 id,\n        string memory name, \n        string memory participants,\n        uint8 participantCount,\n        uint date, \n        MatchOutcome outcome, \n        int8 winner) {\n\n        bytes32 matchId = 0; \n        bytes32[] memory ids;\n\n        if (_pending) {\n            ids = getPendingMatches(); \n        } else {\n            ids = getAllMatches();\n        }\n        if (ids.length > 0) {\n            matchId = ids[0]; \n        }\n        \n        //by default, return a null match\n        return getMatch(matchId); \n    }\n\n    /// @notice can be used by a client contract to ensure that they've connected to this contract interface successfully\n    /// @return true, unconditionally \n    function testConnection() public pure returns (bool) {\n        return true; \n    }\n\n    /// @notice gets the address of this contract \n    /// @return address \n    function getAddress() public view returns (address) {\n        return msg.sender;\n    }\n\n    /// @notice for testing \n    function addTestData() external onlyOwner {\n        addMatch(\"MI vs. CSK\", \"MI vs. CSK\", 2, DateLib.DateTime(2022, 8, 13, 0, 0, 0, 0, 0).toUnixTimestamp());\n        addMatch(\"RCB vs. CSK\", \"RCB vs. CSK\", 2, DateLib.DateTime(2022, 8, 15, 0, 0, 0, 0, 0).toUnixTimestamp());\n        addMatch(\"RR vs. KKR\", \"RR vs. KKR\", 2, DateLib.DateTime(2022, 9, 3, 0, 0, 0, 0, 0).toUnixTimestamp());\n        addMatch(\"LSG vs. GT\", \"LSG vs. GT\", 2, DateLib.DateTime(2022, 9, 3, 0, 0, 0, 0, 0).toUnixTimestamp());\n        addMatch(\"GT vs. MI\", \"GT vs. MI\", 2, DateLib.DateTime(2022, 9, 21, 0, 0, 0, 0, 0).toUnixTimestamp());\n        addMatch(\"DD vs. LSG\", \"DD vs. LSG\", 2, DateLib.DateTime(2022, 9, 29, 0, 0, 0, 0, 0).toUnixTimestamp());\n        addMatch(\"MI vs. LSG\",\"MI vs. LSG\", 2, DateLib.DateTime(2022, 10, 10, 0, 0, 0, 0, 0).toUnixTimestamp());\n        addMatch(\"KKR vs. DD\", \"KKR vs. DD\", 2, DateLib.DateTime(2022, 11, 11, 0, 0, 0, 0, 0).toUnixTimestamp());\n        addMatch(\"PW vs. RCB\", \"PW vs. RCB\", 2, DateLib.DateTime(2022, 11, 12, 0, 0, 0, 0, 0).toUnixTimestamp());\n    }\n}\n\n",
  "sourcePath": "/Users/vedantdalvi/Projects/ipl/github/oracle/contracts/CricketOracle.sol",
  "compiler": {
    "name": "solc",
    "version": "0.8.19+commit.7dd6d404.Emscripten.clang"
  },
  "schemaVersion": "3.4.13",
  "updatedAt": "2023-04-14T19:54:34.967Z",
  "devdoc": {
    "author": "Vedant Dalvi",
    "kind": "dev",
    "methods": {
      "addMatch(string,string,uint8,uint256)": {
        "params": {
          "_date": "date set for the match ",
          "_name": "descriptive name for the match (e.g. Pac vs. Mayweather 2016)",
          "_participantCount": "number of participants ",
          "_participants": "|-delimited string of participants names (e.g. \"Manny Pac|Floyd May\")"
        },
        "returns": {
          "_0": "the unique id of the newly created match "
        }
      },
      "declareOutcome(bytes32,uint8,int8)": {
        "params": {
          "_matchId": "unique id of the match to modify",
          "_outcome": "outcome of the match "
        }
      },
      "getAddress()": {
        "returns": {
          "_0": "address "
        }
      },
      "getAllMatches()": {
        "returns": {
          "_0": "an array of unique match ids"
        }
      },
      "getMatch(bytes32)": {
        "params": {
          "_matchId": "the unique id of the desired match "
        }
      },
      "getMostRecentMatch(bool)": {
        "params": {
          "_pending": "if true, will return only the most recent pending match; otherwise, returns the most recent match either pending or completed"
        }
      },
      "getPendingMatches()": {
        "returns": {
          "_0": "an array of unique match ids"
        }
      },
      "matchExists(bytes32)": {
        "params": {
          "_matchId": "the match id to test"
        },
        "returns": {
          "_0": "true if match exists and id is valid"
        }
      },
      "testConnection()": {
        "returns": {
          "_0": "true, unconditionally "
        }
      },
      "transferOwnership(address)": {
        "details": "Allows the current owner to transfer control of the contract to a newOwner.",
        "params": {
          "newOwner": "The address to transfer ownership to."
        }
      }
    },
    "title": "IPL Match result Oracle",
    "version": 1
  },
  "userdoc": {
    "kind": "user",
    "methods": {
      "addMatch(string,string,uint8,uint256)": {
        "notice": "puts a new pending match into the blockchain "
      },
      "addTestData()": {
        "notice": "for testing "
      },
      "declareOutcome(bytes32,uint8,int8)": {
        "notice": "sets the outcome of a predefined match, permanently on the blockchain"
      },
      "getAddress()": {
        "notice": "gets the address of this contract "
      },
      "getAllMatches()": {
        "notice": "gets the unique ids of matches, pending and decided, in reverse chronological order"
      },
      "getMatch(bytes32)": {
        "notice": "gets the specified match "
      },
      "getMostRecentMatch(bool)": {
        "notice": "gets the most recent match or pending match "
      },
      "getPendingMatches()": {
        "notice": "gets the unique ids of all pending matches, in reverse chronological order"
      },
      "matchExists(bytes32)": {
        "notice": "determines whether a match exists with the given id "
      },
      "testConnection()": {
        "notice": "can be used by a client contract to ensure that they've connected to this contract interface successfully"
      }
    },
    "notice": "Collects and provides information on cricket matches and their outcomes ",
    "version": 1
  }
}